{
  "_format": "hh-sol-artifact-1",
  "contractName": "Crowdfunding",
  "sourceName": "contracts/Crowdfunding.sol",
  "abi": [
    {
      "anonymous": false,
      "inputs": [
        {
          "indexed": false,
          "internalType": "uint256",
          "name": "campaignId",
          "type": "uint256"
        },
        {
          "indexed": true,
          "internalType": "address",
          "name": "creator",
          "type": "address"
        },
        {
          "indexed": false,
          "internalType": "uint256",
          "name": "goal",
          "type": "uint256"
        },
        {
          "indexed": false,
          "internalType": "uint256",
          "name": "deadline",
          "type": "uint256"
        }
      ],
      "name": "CampaignCreated",
      "type": "event"
    },
    {
      "anonymous": false,
      "inputs": [
        {
          "indexed": false,
          "internalType": "uint256",
          "name": "campaignId",
          "type": "uint256"
        },
        {
          "indexed": true,
          "internalType": "address",
          "name": "creator",
          "type": "address"
        },
        {
          "indexed": false,
          "internalType": "uint256",
          "name": "amount",
          "type": "uint256"
        }
      ],
      "name": "Claimed",
      "type": "event"
    },
    {
      "anonymous": false,
      "inputs": [
        {
          "indexed": false,
          "internalType": "uint256",
          "name": "campaignId",
          "type": "uint256"
        },
        {
          "indexed": true,
          "internalType": "address",
          "name": "contributor",
          "type": "address"
        },
        {
          "indexed": false,
          "internalType": "uint256",
          "name": "amount",
          "type": "uint256"
        }
      ],
      "name": "Pledged",
      "type": "event"
    },
    {
      "anonymous": false,
      "inputs": [
        {
          "indexed": false,
          "internalType": "uint256",
          "name": "campaignId",
          "type": "uint256"
        },
        {
          "indexed": true,
          "internalType": "address",
          "name": "contributor",
          "type": "address"
        },
        {
          "indexed": false,
          "internalType": "uint256",
          "name": "amount",
          "type": "uint256"
        }
      ],
      "name": "Refunded",
      "type": "event"
    },
    {
      "inputs": [],
      "name": "campaignCount",
      "outputs": [
        {
          "internalType": "uint256",
          "name": "",
          "type": "uint256"
        }
      ],
      "stateMutability": "view",
      "type": "function"
    },
    {
      "inputs": [
        {
          "internalType": "uint256",
          "name": "",
          "type": "uint256"
        }
      ],
      "name": "campaigns",
      "outputs": [
        {
          "internalType": "address",
          "name": "creator",
          "type": "address"
        },
        {
          "internalType": "uint256",
          "name": "goal",
          "type": "uint256"
        },
        {
          "internalType": "uint256",
          "name": "pledged",
          "type": "uint256"
        },
        {
          "internalType": "uint256",
          "name": "deadline",
          "type": "uint256"
        },
        {
          "internalType": "bool",
          "name": "isClaimed",
          "type": "bool"
        }
      ],
      "stateMutability": "view",
      "type": "function"
    },
    {
      "inputs": [
        {
          "internalType": "uint256",
          "name": "_campaignId",
          "type": "uint256"
        }
      ],
      "name": "claimFunds",
      "outputs": [],
      "stateMutability": "nonpayable",
      "type": "function"
    },
    {
      "inputs": [
        {
          "internalType": "uint256",
          "name": "",
          "type": "uint256"
        },
        {
          "internalType": "address",
          "name": "",
          "type": "address"
        }
      ],
      "name": "contributions",
      "outputs": [
        {
          "internalType": "uint256",
          "name": "",
          "type": "uint256"
        }
      ],
      "stateMutability": "view",
      "type": "function"
    },
    {
      "inputs": [
        {
          "internalType": "uint256",
          "name": "_goal",
          "type": "uint256"
        },
        {
          "internalType": "uint256",
          "name": "_duration",
          "type": "uint256"
        }
      ],
      "name": "createCampaign",
      "outputs": [],
      "stateMutability": "nonpayable",
      "type": "function"
    },
    {
      "inputs": [
        {
          "internalType": "uint256",
          "name": "_campaignId",
          "type": "uint256"
        }
      ],
      "name": "pledge",
      "outputs": [],
      "stateMutability": "payable",
      "type": "function"
    },
    {
      "inputs": [
        {
          "internalType": "uint256",
          "name": "_campaignId",
          "type": "uint256"
        }
      ],
      "name": "refund",
      "outputs": [],
      "stateMutability": "nonpayable",
      "type": "function"
    }
  ],
  "bytecode": "0x6080604052348015600f57600080fd5b506112168061001f6000396000f3fe6080604052600436106100705760003560e01c8063278ecde11161004e578063278ecde1146101085780633d891f59146101315780637274e30d1461016e5780637326c9c01461019957610070565b8063141961bc146100755780631b55e338146100b657806322502268146100df575b600080fd5b34801561008157600080fd5b5061009c60048036038101906100979190610a8e565b6101b5565b6040516100ad959493929190610b26565b60405180910390f35b3480156100c257600080fd5b506100dd60048036038101906100d89190610a8e565b610218565b005b3480156100eb57600080fd5b5061010660048036038101906101019190610b79565b61049d565b005b34801561011457600080fd5b5061012f600480360381019061012a9190610a8e565b610680565b005b34801561013d57600080fd5b5061015860048036038101906101539190610be5565b6108b2565b6040516101659190610c25565b60405180910390f35b34801561017a57600080fd5b506101836108d7565b6040516101909190610c25565b60405180910390f35b6101b360048036038101906101ae9190610a8e565b6108dd565b005b60016020528060005260406000206000915090508060000160009054906101000a900473ffffffffffffffffffffffffffffffffffffffff16908060010154908060020154908060030154908060040160009054906101000a900460ff16905085565b803373ffffffffffffffffffffffffffffffffffffffff166001600083815260200190815260200160002060000160009054906101000a900473ffffffffffffffffffffffffffffffffffffffff1673ffffffffffffffffffffffffffffffffffffffff16146102bd576040517f08c379a00000000000000000000000000000000000000000000000000000000081526004016102b490610c9d565b60405180910390fd5b6000600160008481526020019081526020016000209050806003015442101561031b576040517f08c379a000000000000000000000000000000000000000000000000000000000815260040161031290610d09565b60405180910390fd5b806001015481600201541015610366576040517f08c379a000000000000000000000000000000000000000000000000000000000815260040161035d90610d75565b60405180910390fd5b8060040160009054906101000a900460ff16156103b8576040517f08c379a00000000000000000000000000000000000000000000000000000000081526004016103af90610de1565b60405180910390fd5b60018160040160006101000a81548160ff0219169083151502179055508060000160009054906101000a900473ffffffffffffffffffffffffffffffffffffffff1673ffffffffffffffffffffffffffffffffffffffff166108fc82600201549081150290604051600060405180830381858888f19350505050158015610443573d6000803e3d6000fd5b503373ffffffffffffffffffffffffffffffffffffffff167f4ec90e965519d92681267467f775ada5bd214aa92c0dc93d90a5e880ce9ed026848360020154604051610490929190610e01565b60405180910390a2505050565b600082116104e0576040517f08c379a00000000000000000000000000000000000000000000000000000000081526004016104d790610e76565b60405180910390fd5b60008111610523576040517f08c379a000000000000000000000000000000000000000000000000000000000815260040161051a90610f08565b60405180910390fd5b600081426105319190610f57565b90506040518060a001604052803373ffffffffffffffffffffffffffffffffffffffff1681526020018481526020016000815260200182815260200160001515815250600160008054815260200190815260200160002060008201518160000160006101000a81548173ffffffffffffffffffffffffffffffffffffffff021916908373ffffffffffffffffffffffffffffffffffffffff16021790555060208201518160010155604082015181600201556060820151816003015560808201518160040160006101000a81548160ff0219169083151502179055509050503373ffffffffffffffffffffffffffffffffffffffff167f91b289a829e71d811b8c69e4a24ba2d40d115d8a236e9a724cb3bb2d43cf7223600054858460405161065c93929190610f8b565b60405180910390a260008081548092919061067690610fc2565b9190505550505050565b600060016000838152602001908152602001600020905080600301544210156106de576040517f08c379a00000000000000000000000000000000000000000000000000000000081526004016106d590610d09565b60405180910390fd5b8060010154816002015410610728576040517f08c379a000000000000000000000000000000000000000000000000000000000815260040161071f90611056565b60405180910390fd5b60006002600084815260200190815260200160002060003373ffffffffffffffffffffffffffffffffffffffff1673ffffffffffffffffffffffffffffffffffffffff168152602001908152602001600020549050600081116107c0576040517f08c379a00000000000000000000000000000000000000000000000000000000081526004016107b7906110c2565b60405180910390fd5b60006002600085815260200190815260200160002060003373ffffffffffffffffffffffffffffffffffffffff1673ffffffffffffffffffffffffffffffffffffffff168152602001908152602001600020819055503373ffffffffffffffffffffffffffffffffffffffff166108fc829081150290604051600060405180830381858888f1935050505015801561085c573d6000803e3d6000fd5b503373ffffffffffffffffffffffffffffffffffffffff167f7ca5472b7ea78c2c0141c5a12ee6d170cf4ce8ed06be3d22c8252ddfc7a6a2c484836040516108a5929190610e01565b60405180910390a2505050565b6002602052816000526040600020602052806000526040600020600091509150505481565b60005481565b60006001600083815260200190815260200160002090508060030154421061093a576040517f08c379a00000000000000000000000000000000000000000000000000000000081526004016109319061112e565b60405180910390fd5b6000341161097d576040517f08c379a0000000000000000000000000000000000000000000000000000000008152600401610974906111c0565b60405180910390fd5b348160020160008282546109919190610f57565b92505081905550346002600084815260200190815260200160002060003373ffffffffffffffffffffffffffffffffffffffff1673ffffffffffffffffffffffffffffffffffffffff16815260200190815260200160002060008282546109f89190610f57565b925050819055503373ffffffffffffffffffffffffffffffffffffffff167f2757ac6a40883f4491cc56930ae964df9034e343e660d5179eb01e198336756b8334604051610a47929190610e01565b60405180910390a25050565b600080fd5b6000819050919050565b610a6b81610a58565b8114610a7657600080fd5b50565b600081359050610a8881610a62565b92915050565b600060208284031215610aa457610aa3610a53565b5b6000610ab284828501610a79565b91505092915050565b600073ffffffffffffffffffffffffffffffffffffffff82169050919050565b6000610ae682610abb565b9050919050565b610af681610adb565b82525050565b610b0581610a58565b82525050565b60008115159050919050565b610b2081610b0b565b82525050565b600060a082019050610b3b6000830188610aed565b610b486020830187610afc565b610b556040830186610afc565b610b626060830185610afc565b610b6f6080830184610b17565b9695505050505050565b60008060408385031215610b9057610b8f610a53565b5b6000610b9e85828601610a79565b9250506020610baf85828601610a79565b9150509250929050565b610bc281610adb565b8114610bcd57600080fd5b50565b600081359050610bdf81610bb9565b92915050565b60008060408385031215610bfc57610bfb610a53565b5b6000610c0a85828601610a79565b9250506020610c1b85828601610bd0565b9150509250929050565b6000602082019050610c3a6000830184610afc565b92915050565b600082825260208201905092915050565b7f4e6f74207468652063616d706169676e206f776e657200000000000000000000600082015250565b6000610c87601683610c40565b9150610c9282610c51565b602082019050919050565b60006020820190508181036000830152610cb681610c7a565b9050919050565b7f43616d706169676e207374696c6c206163746976650000000000000000000000600082015250565b6000610cf3601583610c40565b9150610cfe82610cbd565b602082019050919050565b60006020820190508181036000830152610d2281610ce6565b9050919050565b7f476f616c206e6f74207265616368656400000000000000000000000000000000600082015250565b6000610d5f601083610c40565b9150610d6a82610d29565b602082019050919050565b60006020820190508181036000830152610d8e81610d52565b9050919050565b7f46756e647320616c726561647920636c61696d65640000000000000000000000600082015250565b6000610dcb601583610c40565b9150610dd682610d95565b602082019050919050565b60006020820190508181036000830152610dfa81610dbe565b9050919050565b6000604082019050610e166000830185610afc565b610e236020830184610afc565b9392505050565b7f476f616c206d7573742062652067726561746572207468616e207a65726f0000600082015250565b6000610e60601e83610c40565b9150610e6b82610e2a565b602082019050919050565b60006020820190508181036000830152610e8f81610e53565b9050919050565b7f4475726174696f6e206d7573742062652067726561746572207468616e207a6560008201527f726f000000000000000000000000000000000000000000000000000000000000602082015250565b6000610ef2602283610c40565b9150610efd82610e96565b604082019050919050565b60006020820190508181036000830152610f2181610ee5565b9050919050565b7f4e487b7100000000000000000000000000000000000000000000000000000000600052601160045260246000fd5b6000610f6282610a58565b9150610f6d83610a58565b9250828201905080821115610f8557610f84610f28565b5b92915050565b6000606082019050610fa06000830186610afc565b610fad6020830185610afc565b610fba6040830184610afc565b949350505050565b6000610fcd82610a58565b91507fffffffffffffffffffffffffffffffffffffffffffffffffffffffffffffffff8203610fff57610ffe610f28565b5b600182019050919050565b7f476f616c20776173207265616368656400000000000000000000000000000000600082015250565b6000611040601083610c40565b915061104b8261100a565b602082019050919050565b6000602082019050818103600083015261106f81611033565b9050919050565b7f4e6f20636f6e747269627574696f6e7320746f20726566756e64000000000000600082015250565b60006110ac601a83610c40565b91506110b782611076565b602082019050919050565b600060208201905081810360008301526110db8161109f565b9050919050565b7f43616d706169676e2068617320656e6465640000000000000000000000000000600082015250565b6000611118601283610c40565b9150611123826110e2565b602082019050919050565b600060208201905081810360008301526111478161110b565b9050919050565b7f506c6564676520616d6f756e74206d757374206265206772656174657220746860008201527f616e207a65726f00000000000000000000000000000000000000000000000000602082015250565b60006111aa602783610c40565b91506111b58261114e565b604082019050919050565b600060208201905081810360008301526111d98161119d565b905091905056fea264697066735822122022f01b9e5e39013198f66feb4dcc6ee231ae5c3252fe118c1a7439b5fdb831d964736f6c634300081b0033",
  "linkReferences": {},
  "deployedLinkReferences": {}
}